:020000040800F2
:10000000280F002065180008750400087704000810
:100010007B0400087F04000883040008000000003F
:10002000000000000000000000000000870400083D
:1000300089040008000000008B0400088D040008FB
:100040007F1800087F1800087F1800087F18000834
:100050007F1800087F1800087F1800087F18000824
:100060007F1800087F1800087F1800087F18000814
:100070007F1800087F1800087F1800087F18000804
:100080007F1800087F1800087F1800087F180008F4
:100090007F1800087F1800087F1800087F180008E4
:1000A0007F180008D10800087F1800087F18000892
:1000B0007F1800087F1800087F1800087F180008C4
:1000C0007F1800087F1800087F1800087F180008B4
:1000D0007F180008D91700087F1800084D10000885
:1000E0007F1800087F1800087F1800087F18000894
:1000F0007F1800087F1800087F1800087F18000884
:100100007F1800087F1800087F1800087F18000873
:100110007F1800087F1800087F1800087F18000863
:100120007F1800087F1800087F1800087F18000853
:1001300000F002F800F05EF80AA090E8000C82449B
:100140008344AAF10107DA4501D100F053F8AFF278
:10015000090EBAE80F0013F0010F18BFFB1A43F0A5
:1001600001031847484900006849000010F8013BA6
:100170000A4413F0030408BF10F8014B1D1108BF17
:1001800010F8015B641E05D010F8016B641E01F8C5
:10019000016BF9D1002D15D010F8014B03F00C03C1
:1001A0000C2BA1EB04040ABF10F8013BA4EB831451
:1001B000A4EB032405F1010314F8016B5B1E01F8A5
:1001C000016BF9D5914238BF10F8013BD1D370478C
:1001D0000023002400250026103A28BF78C1FBD850
:1001E000520728BF30C148BF0B6070471FB51FBD05
:1001F00010B510BD03F082FA1146FFF7F7FF00F0CB
:100200009AF803F0A0FA03B4FFF7F2FF03BC01F081
:1002100089FA0000F0B588B0034602250124632A5C
:100220002ADBC1F5C87007E053F82060C1F5C87734
:10023000C71B4DF82760401CB0F5C87FF4DB40F2C7
:100240008F1005E0461A53F8266043F82060401EE0
:100250008842F7DA002004E05DF8206043F820606F
:10026000401C8842F8DB002003E000264DF82060A7
:10027000401C8842F9DB5CE0632A2CDA322A2ADD52
:10028000C5F5C87007E053F82060C5F5C877C71BEF
:100290004DF82760401CB0F5C87FF4DB40F28F10AA
:1002A00005E0461B53F8266043F82060401E884254
:1002B000F7DA002004E05DF8206043F82060401C7D
:1002C000A842F8DB002003E000264DF82060401C27
:1002D000A842F9DB2DE0322A2BDA192A29DBC4F5F2
:1002E000C87007E053F82060C4F5C877C71B4DF805
:1002F0002760401CB0F5C87FF4DB40F28F1005E0AA
:10030000061B53F8266043F82060401EA042F7DA2F
:10031000002004E05DF8206043F82060401CA0420B
:10032000F8DB002003E000264DF82060401CA042CE
:10033000F9DB08B0F0BD08B500BF00244FF4A060A1
:1003400002F034F801F084F94FF4965000F020FEEA
:1003500000F0FEFF0021322000F08AF9322000F088
:1003600033FA01F047F800F0BAFD77E0C821012028
:1003700001F099F80446224602213948FFF74AFF66
:100380000121384801F0DDFEC82001F09EF9364811
:1003900000683649086003220521012000F066FD4F
:1003A00004220721012000F061FD0522092101201E
:1003B00000F05CFD06220B21012000F057FD002219
:1003C0000121022000F052FD01220321022000F051
:1003D0004DFD27A20521022000F053FC0220034618
:1003E0000090224809210268022000F068FC0022E7
:1003F0000121032000F03AFD01220321084600F00C
:1004000035FD1BA20521032000F03BFC14490868C0
:1004100003F01EFE0546002004232A460921009011
:10042000032000F04CFC00220121042000F01EFDFE
:1004300001220321042000F019FD0DA20521042052
:1004400000F01FFC204603F0EBFD054600200323CF
:100450002A4609210090042000F031FC86E70000C4
:100460002800002000480040B407002000000020C1
:10047000552F5600704700BFFEE700BFFEE700BFE4
:10048000FEE700BFFEE77047704770477047000007
:100490000CB50020019000906C48006840F480305A
:1004A0006A49086000BF6948006800F400300090A5
:1004B0000198401C0190009818B90198B0F5A06F00
:1004C000F1D16248006800F4003010B101200090C2
:1004D00001E0002000900098012843D15C480068AA
:1004E00040F010005A4908600846006820F00300F8
:1004F00008600846006840F0020008605348406801
:10050000524948600846406848600846406840F4E0
:10051000806048600846406820F47C1048600846C7
:10052000406840F4E81048600846006840F0807079
:10053000086000BF4548006800F000700028F9D04E
:100540004248406820F0030040494860084640683F
:1005500040F00200486000BF3C48406800F00C00DA
:100560000828F9D10CBD10B5FFF792FF10BD10B5EA
:100570003648006840F00100344908600846406889
:10058000344908403149486008460068324908400B
:100590002E4908600846006820F48020086008465C
:1005A000406820F4FE0048604FF41F008860FFF7A9
:1005B000DAFF4FF000602949086010BD10B5002136
:1005C00000200022214B5B6803F00C0121B10429BB
:1005D00006D0082928D107E0214B224C236027E0D0
:1005E0001F4B204C236023E0184B5B6803F4701012
:1005F000164B5B6803F48032022303EB904022B970
:10060000194B4343174C23600DE0104B5B6803F418
:10061000003323B1144B4343124C236003E0104BCF
:100620004343104C236003E00D4B0E4C236000BF8E
:1006300000BF064B5B68C3F303130C4CE15C094B32
:100640001B68CB40074C236010BD00000010024027
:10065000002002400000FFF8FFFFF6FE08ED00E07A
:1006600000127A000800002000093D000C00002064
:1006700030B58DB004460D464FF4C8706043F5495F
:100680000968B1FBF0F0401EF34908800846008875
:10069000401E322148436421B0FBF1F0EF4908804D
:1006A0000121042001F01AFC0121082001F016FCB0
:1006B0000121084601F012FC0121C80201F00EFCE4
:1006C0000121E74801F01FFA18208DF833004FF49C
:1006D0008060ADF8300003208DF832000CA9E148AD
:1006E00001F040F90220ADF830000CA9DE4801F01D
:1006F00039F90020ADF82A00ADF82600D648008868
:10070000ADF82800ADF8245000208DF82C0009A980
:10071000D64801F08DFF6020ADF814000020ADF840
:100720002000ADF81C000120ADF816000020ADF847
:100730001E00ADF822000420ADF81800C74800885C
:10074000ADF81A0005A9C94802F03EF84FF4804000
:10075000ADF810000020ADF80C004FF40050ADF8DB
:100760000E005420ADF80A000020ADF80800ADF8E6
:100770000600ADF8040001A9BC4802F075FA192082
:100780008DF8000001208DF8030002208DF8010093
:100790008DF80200684601F00EFE01221146B348B2
:1007A00002F0BDFA0821B14802F0E4FB0121AF4894
:1007B00002F09AFB0121AD4802F096FA0121AB4804
:1007C00002F09EFA0DB030BD10B58CB00446012188
:1007D000102001F083FB0121082001F07FFB0121A3
:1007E000084601F07BFB0121480301F077FB18204C
:1007F0008DF82F004020ADF82C0003208DF82E003E
:100800000BA99B4801F0AEF88020ADF82C000BA995
:10081000944801F0A7F80020ADF82600ADF82200BA
:10082000601E80B2ADF8240047F27F00ADF82000D2
:1008300000208DF8280008A98E4801F0F9FE6020FC
:10084000ADF810000020ADF81C00ADF81800012034
:10085000ADF812000020ADF81E00ADF81A0004201B
:10086000ADF81400204604EBD071C1F34F01ADF890
:10087000161004A97F4801F018FF4FF48040ADF82E
:100880000C000020ADF808004FF40050ADF80A004D
:100890005420ADF806000020ADF80400ADF80200C9
:1008A000ADF800006946734802F0DEF9082171488E
:1008B00002F04AFB01216F4802F016FB01216D484E
:1008C00002F012FA01216B4802F01AFA0CB010BDC6
:1008D0002DE9F047684800784FF4C87148435D49F6
:1008E0000968B1FBF0F0451E284603F0B1FB8146D4
:1008F000484603F019FA07460022604B02F06EFFEB
:10090000054602F02DFF82460121584802F0B5FC51
:1009100000287DD0484603F063FB85B22946534842
:1009200002F078FC56485749098850F82100B0F584
:10093000FA6F26D95249534A128851F82210A1F56C
:10094000FA6003F085FB07464F480168384603F01C
:10095000C7FB06464D4903F013FA054603F040FB7A
:1009600084B2204603F074FB0746514603F0B8FBFF
:10097000064603F035FB85B229463C4802F050FCA0
:1009800041E03F483F49098850F82100B0F5FA6F2F
:1009900026D23B493B4A128851F82210C1F5FA6031
:1009A00003F056FB074638480168384603F098FBC9
:1009B0000646364903F091FC054603F011FB84B26C
:1009C000204603F045FB0746514603F089FB0646E7
:1009D00003F006FB85B22946244802F021FC12E010
:1009E0002749284A128851F8220003F031FB0746B4
:1009F000514603F075FB064603F0F2FA85B229462C
:100A00001A4802F00DFC1F480088401C1D4900E0F8
:100A10001DE0088008460088B0F5C87F13D100208B
:100A200008801B480078401C194908700846007867
:100A3000072808D11748006800F071FD12490860C6
:100A40000020134908700121084802F027FCBDE886
:100A5000F0870000080000206A0600206C060020D5
:100A60004000160000080140000C0140002C01402D
:100A700000100140003401401C0000200040AF4045
:100A80002800002068060020240000200000FA440E
:100A90006E0600200000002008B50121082001F0AA
:100AA0001DFA14208DF8030003208DF802004FF486
:100AB0008070ADF800006946FE4800F053FF4FF427
:100AC0000070ADF800006946FA4800F04BFF0122C3
:100AD0005102F84800F0F7FF01221102F54800F03A
:100AE000F2FF08BD10B501221102F24800F0EBFF41
:100AF00001225102EF4800F0E6FF00224FF480711E
:100B0000EC4800F0E0FF00224FF40071E94800F0EB
:100B1000DAFF10BD10B500224FF48071E54800F0F7
:100B2000D2FF01225102E34800F0CDFF0122110261
:100B3000E04800F0C8FF10BD70B50546002415E080
:100B40008020204100EA05024FF48071D94800F06E
:100B5000BAFF01225102D74800F0B5FF00224FF43E
:100B60000071D44800F0AFFF601CC4B2082CE7DB72
:100B700001225102CF4800F0A6FF00224FF400717D
:100B8000CC4800F0A0FF70BD10B50446FFF7AAFFE7
:100B90007820FFF7D1FF0020FFF7CEFF2046FFF7B8
:100BA000CBFFFFF7B7FF10BD10B50446FFF79AFF64
:100BB0007820FFF7C1FF4020FFF7BEFF2046FFF778
:100BC000BBFFFFF7A7FF10BD70B505460C4645F00B
:100BD000B000FFF7D9FF102141EA1410FFF7D4FF4E
:100BE00004F00F00FFF7D0FF70BD70B500240EE0D9
:100BF00000212046FFF7E8FF002504E00020FFF772
:100C0000D3FF681CC5B2802DF8DB601CC4B2082C71
:100C1000EEDB70BD2DE9F04105460E461746721E0B
:100C2000D206110E6A1E5206100EFFF7CDFF0024E9
:100C300009E0A7F12001A04A02EB0111085DFFF7CE
:100C4000B3FF601CC4B2082CF3DB721ED206110E77
:100C50006A1E012303EB4202D0B2FFF7B5FF002466
:100C60000BE0A7F12001944A02EB011204F1080104
:100C7000505CFFF799FF601CC4B2082CF1DBBDE8A3
:100C8000F0812DE9F04107460E461546002407E0A5
:100C90002A5D3019C1B23846FFF7BCFF601CC4B2F0
:100CA000285D0028F4D1BDE8F08110B5024601208E
:100CB00000E050430B1EA1F10101FAD110BD2DE956
:100CC000FC5F81460E4617461D46DDF83080002445
:100CD00019E0384603F084F98246281B411E0A2099
:100CE000FFF7E3FFBAFBF0F00A21B0FBF1F201FBE2
:100CF000120000F1300B3019C1B25A464846FFF7D6
:100D000089FF601CC4B2AC42E3DB7019C1B22E2271
:100D10004846FFF77FFF002428E041460A20FFF7FE
:100D2000C4FF009003F094F98346394603F0D8F9E4
:100D3000824603F055F90190A8EB0400411E0A20F9
:100D4000FFF7B3FF0199B1FBF0F00A21B0FBF1F21C
:100D500001FB120000F1300A70192044401CC1B29E
:100D600052464846FFF756FF601CC4B24445D4DBE8
:100D7000BDE8FC9F2DE9F0478146884615461E4692
:100D8000002D06DB2B2241464846FFF743FF2F4646
:100D900005E02D2241464846FFF73CFF6F42002404
:100DA00017E0301B411E0A20FFF77FFFB7FBF0F072
:100DB0000A21B0FBF1F201FB120000F1300A08EB4E
:100DC0000400401CC1B252464846FFF723FF601C96
:100DD000C4B2B442E5DBBDE8F0872DE9F0478146B7
:100DE0000E4690461F4600241DE0381B411E102071
:100DF000FFF75BFFB8FBF0F000F00F050A2D08DAF3
:100E000005F13000C2B23019C1B24846FFF702FF07
:100E100007E005F13700C2B23019C1B24846FFF70A
:100E2000F9FE601CC4B2BC42DFDBBDE8F0872DE9EF
:100E3000F04780460E4617461D46002412E0281B48
:100E4000411E0220FFF731FFB7FBF0F000F0010078
:100E500000F130093019C1B24A464046FFF7DAFEC8
:100E6000601CC4B2AC42EADBBDE8F0872DE9F0417A
:100E700006460F46904600244FEA48157A1ED206D1
:100E8000110E721E5206100EFFF79EFE00BF06E006
:100E90000A49485DFFF788FE6D1C601CC4B2102C27
:100EA000F6DB7A1ED206110E721E012303EB4202FC
:100EB000D0B205E0000C0140DA430008CA4900083E
:100EC000FFF782FE002406E03049485DFFF76CFE24
:100ED0006D1C601CC4B2102CF6DBBDE8F08170B54F
:100EE000002406E0002500E06D1CB5F57A7FFBD3F9
:100EF000641CB4F57A7FF5D3FFF7CEFDAE20FFF783
:100F000043FED520FFF740FE8020FFF73DFEA820DE
:100F1000FFF73AFE3F20FFF737FED320FFF734FEFE
:100F20000020FFF731FE4020FFF72EFEA120FFF743
:100F30002BFEC820FFF728FEDA20FFF725FE12203F
:100F4000FFF722FE8120FFF71FFECF20FFF71CFED8
:100F5000D920FFF719FEF120FFF716FEDB20FFF77F
:100F600013FE3020FFF710FEA420FFF70DFEA62091
:100F7000FFF70AFE8D20FFF707FE1420FFF704FE9F
:100F8000AF20FFF701FEFFF730FE70BDCA49000831
:100F900010B586B004460121082000F09FFF012112
:100FA000880400F0A8FF0121084600F097FF4FF4E5
:100FB0008060ADF8140003208DF8160018208DF81D
:100FC000170005A9CC4800F0CDFC4FF40060ADF847
:100FD000140004208DF8170005A9C74800F0C2FCD2
:100FE00001940020ADF80800ADF80A00ADF80C003F
:100FF000ADF810000C20ADF80E0001A9BF4801F0BB
:1010000014F80121BD4801F09CF84021BB4801F0D3
:1010100080F9012240F22441B84801F09EF80122F3
:1010200040F22551B54801F098F827208DF80000CE
:1010300002208DF8010003208DF8020001208DF8B8
:101040000300684601F0B7F906B010BD2DE9F04F76
:1010500087B00020069040F22551A84801F062F9BF
:1010600000287DD0A54801F0DDF800F0FF0AA44873
:10107000007820B101280FD0022872D11FE0BAF108
:10108000550F02D0BAF1F20F05D19E4880F800A0AA
:1010900001209B4908702AE1BAF15A0F0BD19948F7
:1010A00080F801A002209849087095490870002036
:1010B0009649087002E000209149087017E19148B4
:1010C0009149097800F801A08F480078401C8E49AA
:1010D00008700846007818287ED1002088490870DA
:1010E0008A480078504578D10021844801F029F8D9
:1010F0008448807801048348C07801EB002081494E
:1011000009790844824908607E48407901047D4895
:10111000807901EB00207B49C97908447D4908604A
:101120007848007A01047748407A01EB002075493D
:10113000897A0844784908607248C07A0104714885
:10114000007B01EB00206F49497B0844734908602C
:101150006C48807B01046B48C07B01EB002001E000
:10116000C6E0C3E06749097C08446D4908606548EA
:10117000407C01046348807C01EB00206149C97C0C
:101180000844684908606348006802F07FFCCDE9C4
:1011900004015F48006802F05BFF834602F0C4FD73
:1011A000804600224FF0804302F0C0FC0646DDE995
:1011B000042302F013FB044602F0D2FA5A490860F5
:1011C0005648006802F062FC8046584A584B02F0CC
:1011D000ADFC06460F4601E082E086E04E4800681E
:1011E00002F036FF804602F09FFD32463B46CDE9D5
:1011F000040102F0F3FA044602F0B2FA4A494860E8
:101200004848006802F042FC04460D464448006825
:1012100002F01EFF834602F087FD00224FF080435C
:10122000CDE9040102F082FC064622462B4602F07C
:10123000D5FA804602F094FA3B4988600A46516824
:10124000106802F04DFF044637498868214602F0D5
:1012500005FE3549C8602B48007D36490978B1EB59
:10126000D01F09D034480068401C33490860254825
:10127000007DC0092F4908702F48008801042148CB
:10128000407D01EB00201F49897D084406902448D9
:10129000006802F0DDFE0390069802F0D9FE2749AF
:1012A000019002F0DBFD0290039902F019FF8346E2
:1012B00002F03AFD0646224A224B02F037FC044671
:1012C0000022214B02F032FC0022204BCDE9040128
:1012D00002F084FA804602F043FA1349086104E000
:1012E0000A48007850440949087000E000BF00BF78
:1012F00007B0BDE8F08F0000000C0140004800403E
:1013000072060020B406002070060020730600203C
:1013100074060020780600207C060020800600204D
:101320008406002088060020B40700209A99999925
:101330009999A93F900600208C060020286B6E4EDC
:101340003F355EBA490C08400000F03F0020AC4039
:1013500008B50121102000F0C1FD4FF48850ADF810
:10136000000048208DF803006946204800F0FAFA92
:1013700008BD10B5044614B101201D4908701C4871
:10138000007808B34FF48071184800F07EFB28B154
:101390004FF48051154800F078FBA8B90A2000F0FE
:1013A00094F90020124908704FF480710F4800F042
:1013B0006CFB08B9012010BD4FF480510B4800F0C0
:1013C00064FB80B90220F6E74FF48071074800F013
:1013D0005CFB012807D10103044800F056FB0128FB
:1013E00001D1034908700020E5E70000001001402A
:1013F0009106002000B587B001214FF4017000F084
:101400006DFD4FF4004000F0CDFC0220ADF804006B
:1014100000208DF8070001A9324800F0A3FA3248F5
:1014200001F040FF002002908DF80C008DF80D00B7
:101430004FF4602004900020059001208DF81800E2
:1014400002A9294801F055FF0121274801F07DFF3D
:10145000254801F09CFF00BF234801F09DFF0028B4
:10146000FAD1214801F0A2FF00BF1F4801F0A3FFFD
:101470000028FAD107B000BD10B5044607230122A9
:101480002146194801F0CDFF0121174801F09DFFC9
:1014900000BF0221144802F009F90028F9D01248CF
:1014A00002F026F810BD2DE9F04107460C46002554
:1014B00000260FE03846FFF7DFFFA84204D3384686
:1014C000FFF7DAFF054600E000BF052000F0FDF859
:1014D000701CC6B2A642EDDBB5FBF4F080B2BDE8ED
:1014E000F0810000000801400024014052485349A7
:1014F000086000204860C860486108615048886101
:101500005048C86150480862002088604FF07E5003
:1015100048624FF07C5088624C48C86270472DE9A1
:10152000F04104464548446002465168106802F0A4
:10153000DFFE4249C8600A46516A906802F09CFE8C
:101540000DD83E49C868002102F096FD38D83B4AC4
:10155000D168506902F014FC3849486130E0374ADC
:10156000916A906802F088FD0DD83449C86800215E
:1015700002F082FE24D8314AD168506902F000FCA2
:101580002E4948611CE02D49C86A02F0CDFB054692
:101590000E462A49C86802F0C7FB21F00041074601
:1015A0002A46334602F086FA07D8244AD1685069A1
:1015B00002F0E6FB2149486102E000201F49486132
:1015C0001E4A1169D06802F093FE07461B48016A63
:1015D000384602F085FD0546184A5169D06902F087
:1015E0007FFD0746154AD168906902F079FD804673
:1015F000394602F0C5FB0646294602F0C1FB0F49F9
:1016000088600846C06808610A46516A906802F01E
:1016100033FE03D80948406A08498860074A916A3E
:10162000906802F029FD03D80448806A0349886065
:1016300002488068BDE8F0810000C041CC0700206E
:101640003B70CE3B6C09F93A6F12033B0000C84275
:1016500010B56FF0040000F0F8FE2E4800682E4927
:10166000B0FBF1F02D4908700846007800EB40010E
:10167000C1EBC0104FF6FF7101EAC0002849088095
:1016800010BD0146254A12784A434FF0E0235A61C3
:1016900000229A611A46126942F001021A6100BFE3
:1016A0004FF0E022106900F001021AB100F480321C
:1016B000002AF5D04FF0E022126922F001024FF02B
:1016C000E0231A6100229A6170470146144A128889
:1016D0004A434FF0E0235A6100229A611A46126988
:1016E00042F001021A6100BF4FF0E022106900F0E1
:1016F00001021AB100F48032002AF5D04FF0E02246
:10170000126922F001024FF0E0231A6100229A616F
:10171000704700000800002000127A0092060020A6
:101720009406002000BF704700BF4A4A128802F0AA
:101730004002002AF9D0C2B2464B1B1D1A807047E6
:1017400010B586B00446012144F2040000F0C6FB47
:101750004FF40070ADF8140003208DF81600182027
:101760008DF8170005A93C4800F0FCF84FF48060A4
:10177000ADF8140004208DF8170005A9364800F0D4
:10178000F1F825208DF8000003208DF801008DF878
:10179000020001208DF80300684600F00CFE019461
:1017A0000020ADF80800ADF80A00ADF80C00ADF867
:1017B00010000C20ADF80E0001A9264800F035FC01
:1017C000012240F22551234800F0C7FC01212148A5
:1017D00000F0B7FC06B010BD10B540F225511D4811
:1017E00000F0A0FD10B31B4800F01CFDC4B21B4864
:1017F000008800F40040C8B91848008800F4804010
:1018000060B10A2C03D000201449088020E013485E
:10181000008840F400401149088019E00D2C06D1E1
:101820000E48008840F480400C49088010E00B48C6
:101830000088C0F30D000A490C5408480088401C79
:101840000649088008460088C72801DD0020088076
:1018500010BD000000380140000801409C06002037
:10186000FC0700200948804709480047FEE7FEE7DB
:10187000FEE7FEE7FEE7FEE7FEE7FEE7FEE7FEE740
:1018800004480549054A064B704700006F050008EB
:101890003101000828090020280F0020280B002013
:1018A000280B002010B50446CC48844208D1012101
:1018B000042000F02DFB0021042000F029FB46E06D
:1018C000C748844208D10121082000F021FB0021F3
:1018D000082000F01DFB3AE0C248844208D10121F3
:1018E000102000F015FB0021102000F011FB2EE06D
:1018F000BD48844208D10121202000F009FB0021CD
:10190000202000F005FB22E0B848844208D10121E4
:10191000402000F0FDFA0021402000F0F9FA16E026
:10192000B348844208D10121802000F0F1FA00215F
:10193000802000F0EDFA0AE0AE48844207D1012190
:10194000801500F0E5FA0021A01500F0E1FA10BDC5
:1019500010B50121084600F0DBFA0021012000F05B
:10196000D7FA10BD2DE9F0410246002500260020DF
:1019700000230024002791F803C00CF00F0591F814
:1019800003C00CF0100CBCF1000F03D091F802C0A2
:101990004CEA050591F800C0BCF1000F31D0146885
:1019A00000202BE04FF0010C0CFA00F3B1F800C05E
:1019B0000CEA03069E4220D183004FF00F0C0CFA74
:1019C00003F7BC4305FA03FC4CEA040491F803C096
:1019D000BCF1280F06D14FF0010C0CFA00FCC2F844
:1019E00014C00AE091F803C0BCF1480F05D14FF0D4
:1019F000010C0CFA00FCC2F810C0401C0828D1D31E
:101A00001460B1F800C0BCF1FF0F34DD5468002051
:101A10002EE000F1080C4FF0010808FA0CF3B1F8C1
:101A200000C00CEA03069E4221D183004FF00F0C48
:101A30000CFA03F7BC4305FA03FC4CEA040491F8E2
:101A400003C0BCF1280F05D100F1080C08FA0CF80E
:101A5000C2F8148091F803C0BCF1480F07D100F11F
:101A6000080C4FF0010808FA0CF8C2F81080401C6E
:101A70000828CED35460BDE8F0814FF6FF71018095
:101A8000022181700421C1707047024600209368D2
:101A90000B400BB1012000E0002070470146886830
:101AA00080B2704702460020D3680B400BB1012082
:101AB00000E0002070470146C86880B270470161AD
:101AC0007047416170470AB1016100E041617047B0
:101AD000C16070474FF480320A4382618161826144
:101AE00082698269704702460020434B18684FF6AE
:101AF0008073184040EA021008433F4B186070475B
:101B00003E49C8617047F0B50A4600230024002111
:101B1000002500F00046B6F1004F02D1364EF169C3
:101B200001E0354E7168C0F3034583B200F44016FE
:101B3000B6F5401F08D121F070612F4E766826F06F
:101B400070662D4F7E6012E000F48016B6F5801F9F
:101B500006D1032606FA05F4A14341F0706106E0C0
:101B6000460D360103FA06F6B14341F0706122B129
:101B7000460D360103FA06F6314300F00046B6F191
:101B8000004F02D11C4EF16101E01B4E7160F0BDAF
:101B900030B500228B071C0F0F2303FA04F2164BFB
:101BA00008338C1053F824309343134C08348D10B1
:101BB00044F8253023468C1053F824308C07240F2A
:101BC00000FA04F423430C4C08348D1044F82530FB
:101BD00030BD0A49DC310860704700000008014050
:101BE000000C0140001001400014014000180140A9
:101BF000001C014000200140000001400000204284
:101C0000DF48006840F00100DD4908600846406890
:101C1000DC490840DA49486008460068DA4908406B
:101C2000D74908600846006820F48020086008460C
:101C3000406820F4FE0048604FF41F008860704741
:101C4000CF49096821F48031CD4A116011460968F5
:101C500021F480211160B0F5803F03D0B0F5802FD2
:101C60000ED106E0C649096841F48031C44A1160CA
:101C700007E0C349096841F4A021C14A116000E0AE
:101C800000BF00BF704710B50146002200230020AE
:101C90004A11012A02D1BA4C236806E0022A02D175
:101CA000B74C236A01E0B64C636A01F01F020124BD
:101CB00094401C400CB1012000E0002010BD38B55C
:101CC000002000900024002500BF3120FFF7DBFF3B
:101CD00005460098401C00900098B0F5A06F01D018
:101CE000002DF2D03120FFF7CEFF08B1012400E033
:101CF0000024204638BD01460020A14A106820F08B
:101D0000F80040EAC10010607047A04908607047C1
:101D1000024600209A4B586820F47C1042EA0103E6
:101D20001843974B586070479849086670470146BA
:101D30000020934A506820F0030008435060704729
:101D40008F48406800F00C007047014600208C4A24
:101D5000506820F0F00008435060704701460020B2
:101D6000874A506820F4E06008435060704701469D
:101D70000020834A506820F4605040EAC10050605F
:101D8000704729B17E4A527A02437D4B5A7204E071
:101D90007B4A527A82437A4B5A7270477B49D831D8
:101DA0000860704701460020754A506820F44040A2
:101DB0000843506070470021714A20321170704A08
:101DC00082F82010012802D004280AD104E0012161
:101DD0006B4A2032117005E00521694A20321170EA
:101DE00000E000BF00BF7047694908607047644960
:101DF000096A0143624A11627047654944390860C3
:101E0000704730B500210022002400235C4D6D682E
:101E100005F00C0121B1042905D0082923D105E0E2
:101E20005C4D056022E05B4D05601FE0544D6D6820
:101E300005F47012524D6D6805F48034022505EBEF
:101E400092421CB9544D554305600BE04C4D6D68F2
:101E500005F400351DB1504D5543056002E04D4D70
:101E60005543056002E04B4D056000BF00BF444D87
:101E70006D6805F0F0010909484D6B5C0568DD40AF
:101E800045603F4D6D6805F4E061090A434D6B5CA8
:101E90004568DD4085603A4D6D6805F46051C90ABA
:101EA0003E4D6B5C4568DD40C560354D6D6805F4A1
:101EB0004041890B3A4D6B5CC568B5FBF3F5056194
:101EC00030BD29B12E4A526902432D4B5A6104E0BC
:101ED0002B4A526982432A4B5A61704729B1284ADA
:101EE00092690243264B9A6104E0254A9269824333
:101EF000234B9A61704729B1214AD2690243204B92
:101F0000DA6104E01E4AD26982431D4BDA617047F0
:101F100029B11B4AD2680243194BDA6004E0184A1F
:101F2000D2688243164BDA60704729B1144A1269AD
:101F30000243134B1A6104E0114A12698243104BA9
:101F40001A61704712494039086070470F49C864E8
:101F500070470B49C87170470948406A40F080706B
:101F600007494862704701460020054A92680A40C6
:101F70000AB1012000E000207047014988727047D3
:101F8000001002400000FFF8FFFFF6FE0000424292
:101F90008004424200127A0000093D009E060020A3
:101FA000AE06002010B50446FB48844209D1012149
:101FB0008803FFF7ADFF00214FF48040FFF7A8FF33
:101FC00032E0F648844209D101214804FFF7ADFF11
:101FD00000214FF40030FFF7A8FF25E0F0488442CD
:101FE00009D101218804FFF7A0FF00214FF48020D0
:101FF000FFF79BFF18E0EB48844209D10121C80498
:10200000FFF793FF00214FF40020FFF78EFF0BE056
:10201000E548844208D101210805FFF786FF002129
:102020004FF48010FFF781FF10BD2DE9F04786B017
:1020300005460E460024A24600BFA1460027B089EF
:1020400000B100BF2F462C8A4CF6FF700440F08888
:1020500004432C82AC894EF6F3100440B0883189D9
:102060000843718908430443AC81AC8A4FF6FF40B2
:102070000440B0890443AC8201A8FFF7C2FEC64801
:10208000874202D1DDF810A001E0DDF80CA0A8899C
:1020900000F4004040B10AEBCA0000EB0A103168BE
:1020A0004900B0FBF1F807E00AEBCA0000EB0A10A8
:1020B00031688900B0FBF1F86420B8FBF0F004014E
:1020C0002009642101FB1089A88900F4004040B177
:1020D000322000EBC900B0FBF1F000F00700044330
:1020E00008E0322000EB09106421B0FBF1F000F0B1
:1020F0000F0004432C8106B0BDE8F0874FF4165161
:10210000016000218180C18001810C214181002179
:102110008181704710B502460020108A4FF2FF03FC
:1021200018400B884C8823438C882343CC88234356
:102130001843108210BD0021018041808180C18040
:10214000704721B1828942F40052828104E0828981
:102150004DF6FF731A4082817047F0B503460024A4
:1021600000260025002040F66A17B94200D100BFC2
:102170001846C1F3421401F01F06012707FA06F5BD
:10218000012C01D10C3004E0022C01D1103000E010
:1021900014301AB107682F43076002E00768AF43A5
:1021A0000760F0BD1AB1838A0B43838202E0838A01
:1021B0008B4383827047028A4FF6F0731A40028283
:1021C000028A0A430282704782894FF2FF731A40E3
:1021D000828182890A438281704721B1828942F0DB
:1021E0000202828104E082894FF6FD731A408281E7
:1021F0007047028A4FF6DF731A400282028A0A434E
:102200000282704721B1028A42F48042028204E0D5
:10221000028A4BF6FF731A4002827047C1F308022C
:102220008280704701468888C0F308007047818922
:1022300041F0010181817047028BD2B20283028B8F
:1022400042EA012202837047028B02F47F4202833A
:10225000028B0A430283704721B1828A42F0200236
:10226000828204E0828A4FF6DF731A4082827047CE
:1022700021B1828A42F01002828204E0828A4FF603
:10228000EF731A408282704721B1828A42F00802BD
:10229000828204E0828A4FF6F7731A408282704786
:1022A00021B1828942F40042828103E08289C2F333
:1022B0000E028281704721B1828A42F400628282DA
:1022C00004E0828A4FF2FF731A4082827047828A4A
:1022D0004FF6FB731A408282828A0A4382827047D9
:1022E00021B1828A42F00202828204E0828A4FF6A1
:1022F000FD731A408282704702460020B1F5007FCC
:1023000000D100BF13880B400BB1012000E000207A
:10231000704701F40072B2F5007F00D100BFCA43DC
:102320000280704770B5024600240023002500207B
:1023300040F66A16B14200D100BFC1F3421501F068
:102340001F03012606FA03F3012D02D196893340BB
:1023500006E0022D02D1168A334001E0968A33400E
:102360000C12012606FA04F41688344013B10CB19D
:10237000012000E0002070BD10B50022002340F6CF
:102380006A14A14200D100BF0A1201249440A3B2F2
:10239000DC43048010BD00000038014000440040D0
:1023A00000480040004C00400050004031490143CB
:1023B000314A1160704770B5002100230F22C478A4
:1023C00004B32D4C246804F4E064C4F5E064210AED
:1023D000C1F10403CA40447804FA03F1847814403C
:1023E00021430901254C0678A155047804F01F0506
:1023F0000124AC4005786D11AD0005F1E025C5F86C
:10240000004109E0047804F01F050124AC401C4D94
:102410000678761145F8264070BD1A4A0A400243F4
:10242000154B1B1F1A60704739B1134A121D1268F1
:102430000243114B1B1D1A6006E00F4A121D126861
:1024400082430D4B1B1D1A607047042808D14FF0C2
:10245000E021096941F004014FF0E022116107E039
:102460004FF0E021096921F004014FF0E0221161F1
:10247000704700000000FA050CED00E000E400E009
:1024800080E100E080FFFF1F10B50446FE48844253
:1024900008D10121C014FFF73BFD0021E014FFF734
:1024A00037FDC4E0B4F1804F08D101210846FFF7A1
:1024B0003CFD00210120FFF738FDB8E0F3488442DD
:1024C00008D101210220FFF730FD00210220FFF793
:1024D0002CFDACE0EE48844208D101210420FFF736
:1024E00024FD00210420FFF720FDA0E0E9488442FC
:1024F00008D101210820FFF718FD00210820FFF76F
:1025000014FD94E0E448844208D101211020FFF733
:102510000CFD00211020FFF708FD88E0DF48844211
:1025200008D101212020FFF700FD00212020FFF726
:10253000FCFC7CE0DA48844208D101214014FFF71A
:10254000E7FC00216014FFF7E3FC70E0D54884420B
:1025500009D10121C804FFF7DBFC00214FF4002062
:10256000FFF7D6FC63E0D048844209D10121080579
:10257000FFF7CEFC00214FF48010FFF7C9FC56E0B6
:10258000CA48844209D101214805FFF7C1FC002156
:102590004FF40010FFF7BCFC49E0C548844208D165
:1025A00001214020FFF7C1FC00214020FFF7BDFCC6
:1025B0003DE0C048844208D101218020FFF7B5FCEE
:1025C00000218020FFF7B1FC31E0BB48844208D1F4
:1025D00001218015FFF7A9FC0021A015FFF7A5FC3C
:1025E00025E0B648844209D101210804FFF790FC98
:1025F00000214FF48030FFF78BFC18E0B048844294
:1026000009D101214804FFF783FC00214FF4003079
:10261000FFF77EFC0BE0AB48844208D1012188041F
:10262000FFF776FC00214FF48020FFF771FC10BD0E
:1026300000220288944B98420ED0994B98420BD0BE
:10264000B0F1804F08D0914B984205D0904B984202
:1026500002D0904B984204D14FF68F731A404B88AA
:102660001A438D4B984207D08C4B984204D04FF6BA
:10267000FF431A40CB881A4302808B8883850B88DE
:102680000385814B98420BD0854B984208D08B4BE9
:10269000984205D08A4B984202D08A4B984201D189
:1026A0000B7A038601238382704770B500240022D1
:1026B0000023058C4FF6FE7635400584028C838816
:1026C000048B4FF68F752C40B51E2C400D882C4383
:1026D000751E2A400D892A434D882A436A4DA84217
:1026E0000BD06F4DA84208D0744DA84205D0744D50
:1026F000A84202D0734DA84213D14FF6F7752A4075
:102700004D892A434FF6FB752A408D882A434FF6A0
:10271000FF652B404FF6FF552B408D892B43CD890C
:102720002B4383800483CD888586028470BD70B579
:10273000002400220023058C4FF6EF7635400584F7
:10274000028C8388048B48F6FF752C404FF6FF45BA
:102750002C400D884FF6FF7606EA05252C434FF6F0
:10276000DF752A400D8906EA05152A434D8806EAD9
:1027700005152A43444DA84202D0494DA8421DD117
:102780004FF67F752A404D894FF6FF7606EA05150C
:102790002A434FF6BF752A408D8806EA05152A435D
:1027A0004FF6FF352B404FF2FF752B408D8906EA1F
:1027B00085052B43CD8906EA85052B438380048359
:1027C000CD880587028470BD70B5002400220023E7
:1027D000058C4FF6FF6635400584028C8388848B18
:1027E0004FF68F752C404FF6FC752C400D882C430E
:1027F0004FF6FF552A400D894FF6FF7606EA05256C
:102800002A434D8806EA05252A431F4DA84202D0D7
:10281000234DA8421DD14FF2FF752A404D894FF636
:10282000FF7606EA05252A434FF6FF352A408D88B4
:1028300006EA05252A434EF6FF752B404DF6FF7537
:102840002B408D8906EA05152B43CD8906EA05152F
:102850002B4383808483CD888587028470BD70B5C7
:10286000002200230024058C4EF6FF7635400584B7
:10287000038C8488828B48F6FF752A404FF6FF450B
:102880002A400D8820E00000002C01400004004098
:1028900000080040000C0040001000400014004000
:1028A00000340140004C0140005001400054014000
:1028B00000180040001C0040002000400040014083
:1028C00000440140004801404FF6FF7606EA052526
:1028D0002A434DF6FF752B400D8906EA05352B433B
:1028E0004D8806EA05352B43FA4DA84202D0FA4D31
:1028F000A84208D14BF6FF752C408D894FF6FF7624
:1029000006EA85152C4384808283CD88A0F8405048
:10291000038470BD828B4FF2FF331A408283828B17
:102920004FF6FF7303EA01231A4382837047F0B521
:102930000C461546002200210026078C4EF6FF7C2F
:1029400007EA0C070784828B018C4FF6FF7707EAB2
:10295000043640F6FF473A404FF6FF7707EA05276F
:102960003A434FF6FF7707EA03373A43D94FB84265
:102970000ED0D94FB8420BD0B0F1804F08D0D74F0E
:10298000B84205D0D64FB84202D0D64FB84206D191
:102990004DF6FF77394046F48057394305E047F656
:1029A000FF57394044F48057394382830184F0BD96
:1029B000828B4FF6F3731A408283828B0A438283A1
:1029C0007047F0B50C461546002200210026078C02
:1029D0004FF6FF6C07EA0C070784828B018C4FF6D9
:1029E000FF7707EA04264FF60C773A404FF6FF7759
:1029F00007EA03172F433A43B64FB8420ED0B64FFB
:102A0000B8420BD0B0F1804F08D0B44FB84205D0D7
:102A1000B34FB84202D0B34FB84206D14FF6FF577A
:102A2000394046F48077394305E04FF2FF5739408B
:102A300044F48077394382830184F0BD028B4FF2E6
:102A4000FF331A400283028B4FF6FF7303EA012320
:102A50001A4302837047F0B50C4615460022002148
:102A60000026078C4FF6EF7C07EA0C070784028BE1
:102A7000018C4FF6FF7707EA041640F6FF473A400D
:102A80004FF6FF7707EA03373A434FF6FF7707EA37
:102A900005273A438F4FB8420ED08F4FB8420BD024
:102AA000B0F1804F08D08D4FB84205D08C4FB8425E
:102AB00002D08C4FB84206D14FF6DF77394046F04E
:102AC0001007394305E04FF65F77394044F01007AF
:102AD000394302830184F0BD028B4FF6F3731A4031
:102AE0000283028B0A4302837047F0B50C461546F9
:102AF00000220021068C4FF6FE773E400684028BB2
:102B0000018C4FF60C7632407E1C06EA03162E43EB
:102B10003243704EB0420ED06F4EB0420BD0B0F187
:102B2000804F08D06D4EB04205D06D4EB04202D0FD
:102B30006C4EB04206D14FF6FD76314044F00106AE
:102B4000314305E04FF6F576314044F0010631435C
:102B500002830184F0BD70B505460C465D48854290
:102B60000ED05D4885420BD0B5F1804F08D05B4850
:102B7000854205D05A48854202D05A48854200D144
:102B800000E000BF208850B92389A28861882846C8
:102B9000FFF7ABFFE1882846FFF79EFF25E020887E
:102BA00004280AD12389A28861882846FFF753FFA9
:102BB000E1882846FFF742FF17E0208808280AD15D
:102BC0002389A28861882846FFF7FBFEE188284612
:102BD000FFF7EEFE09E02389A28861882846FFF707
:102BE000A6FEE1882846FFF795FE70BD2DE9F0416D
:102BF00005460C4600260127608808B9022600E039
:102C00000026A088012801D1022700E001272088A2
:102C1000A0B92389A28861882846FFF766FFE1886A
:102C20002846FFF759FF23893A4631462846FFF7E1
:102C300012FFE1882846FFF701FF13E02389A288ED
:102C400061882846FFF707FFE1882846FFF7F6FE70
:102C500023893A4631462846FFF747FFE188284650
:102C6000FFF73AFFBDE8F0810A884B881A438B884A
:102C70001A43CB881A430B891A434B891A438B8911
:102C80001A43A0F8442070474FF6FF71818000215D
:102C90000180C18041800172704700210180418024
:102CA0008180C180018141818181C1817047002182
:102CB00001804180012181800021C1800181704714
:102CC0000021018041808180C18001814181818119
:102CD00070470000002C0140003401400004004017
:102CE00000080040000C004021B1028842F00102BF
:102CF000028004E002884FF6FE731A40028070479B
:102D000031B1B0F8442042F40042A0F8442005E07C
:102D1000B0F84420C2F30E02A0F8442070471AB164
:102D200083890B43838102E083898B4383817047CE
:102D30008182704741EA0203A0F8483070471AB117
:102D400083890B43838102E083898B4383817047AE
:102D500001894FF6F8721140018170470A4600213F
:102D600001894FF68F73194011430181704730B5C7
:102D700004460D4629462046FFF7F0FF208940F023
:102D80000700208130BD2DE9F04104460D4616466E
:102D90001F46602D06D13B46012231462046FFF7F3
:102DA0005AFE05E03B46012231462046FFF79DFED4
:102DB00029462046FFF7D2FF208940F007002081F6
:102DC000BDE8F08130B50C4600210189C9B24FF64B
:102DD000FF7505EA0325154325432943018130BDCD
:102DE0002DE9F04105460E46174698460024434615
:102DF0003A4631462846FFF7E5FF2C894FF6F87032
:102E0000044044F007044FF68F70044044F070040F
:102E10002C81BDE8F081F0B504460D4616461F46EC
:102E20003B46324629462046FFF7CCFF208940F436
:102E300080402081F0BD0185828270470A460021D2
:102E400001884FF68F731940114301807047F0B528
:102E50000C4615461E460021002200230189028BE4
:102E6000038C4FF6F877394021434FF6FC473A4040
:102E700040F201173A434FF6DD773B404FF6FF77BC
:102E800007EA06172F433B43018102830384F0BD09
:102E90000A460021018B4FF68F73194011430183BD
:102EA00070470A460021018B48F6FF7319404FF620
:102EB000FF7303EA02231943018370470A46002186
:102EC000818B4FF68F7319401143818370470A46F7
:102ED0000021818B48F6FF7319404FF6FF7303EA18
:102EE000022319438183704721B1028842F0800296
:102EF000028004E002884FF67F731A400280704718
:102F000021B1828842F00402828004E082884FF678
:102F1000FB731A408280704721B1828842F0080218
:102F2000828004E082884FF6F7731A4082807047EF
:102F300021B1828842F00102828004E082884FF64B
:102F4000FE731A40828070470A460021018B4FF6BB
:102F5000F77319401143018370470A460021018B22
:102F60004FF2FF7319404FF6FF7303EA0223194330
:102F7000018370470A460021818B4FF6F773194091
:102F80001143818370470A460021818B4FF2FF7302
:102F900019404FF6FF7303EA0223194381837047F8
:102FA0000A460021018B4FF6FB7319401143018340
:102FB00070470A460021018B4FF6FF3319404FF648
:102FC000FF7303EA02231943018370470A46002175
:102FD000818B4FF6FB7319401143818370470A467A
:102FE0000021818B4FF6FF3319404FF6FF7303EA40
:102FF00002231943818370470A460021018B4FF653
:103000007F7319401143018370470A460021018BE9
:10301000C1F30E014FF6FF7303EA02231943018344
:1030200070470A460021818B4FF67F731940114388
:10303000818370470A460021818BC1F30E014FF650
:10304000FF7303EA02231943818370470A46002174
:10305000018C4FF6FD7319401143018470470A46F5
:103060000021018C4FF6F77319401143018470471A
:103070000A460021018C4FF6DF7319404FF6FF73AB
:1030800003EA02131943018470470A460021018CA8
:103090004FF67F7319404FF6FF7303EA021319438B
:1030A000018470470A460021018C4FF6FF531940F6
:1030B0004FF6FF7303EA02231943018470470A465F
:1030C0000021018C4FF2FF7319404FF6FF7303EAA2
:1030D00002231943018470470A460021018C4DF6F2
:1030E000FF7319404FF6FF7303EA0233194301845B
:1030F000704730B5002301248C40A3B2048C9C435C
:103100000484048C02FA01F5ADB22C43048430BD72
:1031100030B5002304248C40A3B2048C9C43048467
:10312000048C02FA01F5ADB22C43048430BD70B5B5
:103130000346002000241846183001258D40ACB20B
:103140001D8CA5431D8409B1082909D100EB61003C
:10315000056825F0700505600568154305600EE0FB
:103160000D1FC5F34E052844056825F4E0450560AC
:1031700005684FF6FF7606EA02263543056070BD06
:1031800021B1028842F00202028004E002884FF678
:10319000FD731A400280704721B1028842F0040298
:1031A000028004E002884FF6FB731A4002807047E9
:1031B00021B1828842F08002828004E082884FF64A
:1031C0007F731A408280704702884FF6F7731A4067
:1031D000028002880A430280704782884FF68F730C
:1031E0001A40828082880A438280704702894FF6A3
:1031F000F8731A40028102890A43028170470289EA
:103200004FF67F731A40028102890A430281704798
:103210008184704781857047818670470187704738
:1032200081877047A0F84010704702884FF6FF432F
:103230001A40028002880A43028070470146888E45
:1032400070470146088F70470146888F70470146D6
:10325000B1F8400070470146888C70470146088DE0
:10326000704702460020138A0B400BB1012000E09A
:1032700000207047CA430282704730B502460020E2
:1032800000230024158A05EA0103958905EA010453
:1032900013B10CB1012000E0002030BDCA4302820E
:1032A0007047000010B50446FA48844208D1012155
:1032B0004015FEF72DFE00216015FEF729FE17E0F0
:1032C000F548844208D101210015FEF721FE0021B6
:1032D0002015FEF71DFE0BE0F048844208D10121C5
:1032E000C803FEF715FE00214FF40040FEF710FE64
:1032F00010BD30B50246002000235068E84C204045
:103300000D790C6844EA0524204350609068E54C30
:103310002040D1E902542C434D7944EA450420432E
:103320009060D06A20F470000C7C641EE4B22343E9
:1033300040EA0350D06230BD00210160017141714B
:103340008160C16001210174704721B1826842F03F
:103350000102826003E0826822F00102826070470D
:1033600021B1826842F48072826003E0826822F4B4
:1033700080728260704710B50023CBB21AB14468E6
:103380001C43446002E044689C43446010BD816873
:1033900041F0080181607047014600208A6802F010
:1033A00008020AB1012000E000207047816841F066
:1033B000040181607047014600208A6802F004021F
:1033C0000AB1012000E00020704721B1826842F478
:1033D000A002826003E0826822F4A002826070474B
:1033E000014600208A6802F480020AB1012000E050
:1033F0000020704710B50A4600210023416821F4DF
:103400006041531E41EA4331416010BD21B1426821
:1034100042F40062426003E0426822F400624260CB
:103420007047F0B504460D4600200021092D11DD3E
:10343000E068A5F10A0606EB4607072606FA07F13B
:103440008843A5F10A0606EB460603FA06F108438F
:10345000E0600CE0206905EB4507072606FA07F156
:10346000884305EB450603FA06F108432061072A65
:103470000FDA606B561E06EB86071F2606FA07F169
:103480008843561E06EB860605FA06F1084360637C
:1034900022E00D2A0FDA206BD61F06EB86071F26C7
:1034A00006FA07F18843D61F06EB860605FA06F1F1
:1034B0000843206310E0E06AA2F10D0606EB8607E0
:1034C0001F2606FA07F18843A2F10D0606EB8606D1
:1034D00005FA06F10843E062F0BD21B1826842F4CA
:1034E0008012826003E0826822F48012826070475A
:1034F0000146C86C80B2704766484C30006870471F
:1035000021B1426842F48062426003E0426822F4E2
:1035100080624260704721B1426842F4805242604A
:1035200003E0426822F48052426070470A4600215C
:10353000816821F4E04111438160704721B18268C4
:1035400042F40042826003E0826822F4004282601A
:10355000704721B1826842F40212826003E08268FF
:1035600022F4021282607047014600208A6802F449
:1035700000120AB1012000E000207047F0B50446B7
:103580001546002000220026092911DDE068A1F17E
:103590000A0707EB470C072707FA0CF29043A1F143
:1035A0000A0707EB470703FA07F21043E0600CE055
:1035B000206901EB410C072707FA0CF2904301EB5D
:1035C000410703FA07F210432061A06BC0F30156D4
:1035D000EF1C06F1010CA7EB0C0707EB870C1F276C
:1035E00007FA0CF29043EF1C06F1010CA7EB0C0755
:1035F00007EB870701FA07F21043A063F0BD10B58F
:103600000A4600210023816B21F44011531E41EA38
:103610000351816310BD08B5002300930090009B07
:103620000B440093009B1A6008BD08B502460020B9
:103630000090009201F12800009B1844009000982F
:10364000006880B208BD0A4600214168164B194047
:103650001143416070474162826270470A4600210F
:10366000416821F01F0111434160704740B1094991
:103670000831096841F40001064A0832116007E088
:1036800004490831096821F40001024A0832116036
:10369000704700000024014000280140003C014028
:1036A000FFFEF0FFFDF7F1FFFFFD3FFF02460020A8
:1036B00013680B400BB1012000E000207047CA43A3
:1036C0000260704770B502460020002300240B12F0
:1036D0005568CEB205EA060415681D4015B10CB157
:1036E000012000E0002070BD00220A12D3430360D5
:1036F000704770477047704770477047754600F0D5
:103700002BF8AE4605006946534620F00700854673
:1037100018B020B5FEF7B4F8BDE820404FF0000621
:103720004FF000074FF000084FF0000B21F00701A9
:10373000AC46ACE8C009ACE8C009ACE8C009ACE8EC
:10374000C0098D46704710B50446AFF3008020468F
:10375000BDE81040FCF757BD00487047C408002082
:1037600021F00042A2F16052B2F5801F01F0004347
:1037700028BFD2F17F6C0BD95FEA001C43EAC2027A
:1037800042EB507018BF704728BF20F0010070470F
:10379000B2F5801FBCBF184670474FEA410C1CF5BC
:1037A000001F02D2084600F062BD70B500F068FA52
:1037B00000000089FFF7F6BF4FF00040A0F5800041
:1037C0007047491058BFC1F140415B1058BFC3F169
:1037D00040438B42EFF30080704700002DE9C04169
:1037E00030B4DFF8A0C23CEA111418BF3CEA13144D
:1037F00000F0EC8081EA03051CEA111444EAD57458
:1038000018BF1CEA131500F0C780A4EB05044FF0A5
:10381000004545EAC12145EAC32341EA505143EA44
:10382000525304F17F74994204F500344FEAC020EA
:103830004FEAC22208BF904200F09C804FEA136515
:103840000FF24016765D4FEA134506FB05F7C7F108
:10385000807706FB07F74FEAD737A7FB0368764266
:10386000C8F58038A7FB06CE38BFA8F1010807FBD2
:1038700008E64FF0000EA6FB028CE6FB03CEDCF15F
:10388000000CCEF1004E38BFAEF1010EA6FB0C5875
:103890004FF000074FF00005E6FB0E87A1FB08C6BE
:1038A000A0FB07CE16EB0E0645F10005E1FB076510
:1038B00015F1E04E7EBFA4F580345FEA46066D4107
:1038C00016F1800745F100054FEA17274FEA066613
:1038D00047EA0567A6F1DE46B6F1805F4FEA152597
:1038E0001FD9384624F0010C05EBC471BCF1FE6F02
:1038F00001EB0C1102D8F0BCBDE8008124425CBF92
:1039000001F5801E9EEAC47F02D4F0BCBDE80081B0
:10391000244238D4F0BCA1F1C041BDE8004100F020
:10392000FDB94FEAD22242EA43524FEAD323A7FB22
:1039300002864FEAD02040EA415007FB03661EEAA8
:103940000E0F4FEAD12105FB026658BFA6EB0056C9
:10395000B6EB00564FEA520E4EEAC37E18EB0E0E3F
:1039600056EB530EBDD518EB02085E417F1C55F196
:103970000005B6E74FF480154FF000074FF0000642
:103980004FF00008ADE7F0BC4FF0000001F1C0417E
:1039900001F00041BDE8008111EA0C1F0CEA13158B
:1039A00000D00CE013EA0C1F00F025804FF000005F
:1039B000F0BC81EA030101F00041BDE80081F0BCE8
:1039C000BDE8004181EA030100F0A8B9F0BCBDE800
:1039D000004170B500F054F9097EFC3E00F007B8D4
:1039E00081EA03014FF0000001F00041704781EAD5
:1039F000030100F093B9F0BCBDE800414FF00000B6
:103A000021497047FFFDFBF9F7F5F4F2F0EEEDEB1D
:103A1000E9E8E6E4E3E1E0DEDDDBDAD8D7D5D4D3CC
:103A2000D1D0CFCDCCCBCAC8C7C6C5C4C2C1C0BF18
:103A3000BEBDBCBBBAB9B8B7B6B5B4B3B2B1B0AF1E
:103A4000AEADACABAAA9A8A8A7A6A5A4A3A3A2A102
:103A5000A09F9F9E9D9C9C9B9A99999897979695BD
:103A600095949393929191908F8F8E8E8D8C8C8B59
:103A70008B8A8989888887878685858484838382E1
:103A8000828181800000FF070000F87FB0FA80F398
:103A900010FA03F10AD0C3F11D0303F580634FEA66
:103AA00041504FEA035202EBD12170474FF0000022
:103AB0007047000051EA030C17D41CF5801F58BF53
:103AC000BCF5801F00F10680994218BF704708BFFF
:103AD0009042704707D711F5801F58BF13F5801F1C
:103AE00019D499427047894270471CF5801F08D548
:103AF000BCF5801FF7D58B4218BF704708BF8242C4
:103B000070474FF4001C1CEB410F38BF1CEB430FF8
:103B100001D28B42704770B500F0B2F89224490090
:103B20004FF000514FF08053FFF74BBEDFF848C114
:103B300070B51CEA111E1EBF1CEA13159EEA0C0F7D
:103B400095EA0C0F00F06F8081EA030423EA4C131E
:103B50004EEAD47E21EA4C1141F4801143F48013E3
:103B6000AE44A1FB024CA0FB0365AEF17F7E36198B
:103B700055EB0C05A1FB034C4CF10003A0FB021C10
:103B800016EB0C06654153F10003094218BF46F0DD
:103B9000010613F4007F0BD14FEA03314FEA0530E1
:103BA000340341EA155140EA16506FF003020AE06F
:103BB0004FEAC3214FEAC520F40241EA555140EAD9
:103BC00056506FF0020202EB2E4201EB025585EADD
:103BD000CE710AD05FEA440C18BF24F0004450F1C3
:103BE000000041F1000120EAD47040F2FE7C624501
:103BF00000D270BDA84214BF4FF080444FF0404443
:103C0000002E08BF0024BEF1806FA8BFA1F1C04103
:103C1000BDE8704080F282804FF0000001F1C041A9
:103C200001F0004170479EEA0C0F0CEA131518BF13
:103C300095EA0C0F06D04FF0000081EA030E0EF05B
:103C4000004170BD00F01CF88900013E00F007B88B
:103C500000F009B84FEA430C5FEA5C5C08D081EAE7
:103C6000030100F05BB84FEA410C5FEA5C5CF6D1FF
:103C70004FF00000014970470000FF070000F87F87
:103C80000EF1020E2EF0030E5EF8046B364205D4E0
:103C9000012A43EB030515F5001F12D8012841EB5B
:103CA000010C1CF5001F0CD80ED14FEAD17C15F584
:103CB000001F0CEB4C0C0CF1020C08BF4CEBD37C3E
:103CC00004E04FF0080C01E04FEAD37C0CEB4C050C
:103CD00026FA05F606F00706B6F1040C06D20EEB3E
:103CE000860CBDE870404CF0010C6047DFE80CF03A
:103CF000090B02024FF000414FF00000A1F5002136
:103D000070BD19461046012851EB010418BFD4F5C7
:103D1000001484BF002001F0004170BD0808A0F528
:103D200000114FEA3101704743004FEAD30C4FEACC
:103D30003C0C43401FBF40070CF1605113F0FE4F95
:103D400070471CF0006F03D100200CF00041704759
:103D50000CF0004343EA507010B540EACC0000F08C
:103D600040FA00BF000000924FEA0001FFF7D6BF03
:103D70004FF000414FF00000A1F500217047000016
:103D800090EA010F48BF81F0004100F1B882421A69
:103D90003CBF801A89184FEAD0524FF07F4C1CEA82
:103DA000410FA2EBD15318BF9CEA026F00F03B8099
:103DB0004FF0004C4CEA00204CEA012121FA03FCB0
:103DC00010EB0C0C1ED202F1FF325FEA1C2040EB1C
:103DD000C25038BF70471CF07F0F4FEA400C18BF2D
:103DE000BCF17F4F38BF7047C3F12003994008BF33
:103DF00020F00100BCF17F4F38BF7047A0F1C040F8
:103E000000F035BA4FEA3C00000A40EBC25028BF30
:103E10001CF0FF0F4FEA400CE6D018BFBCF17F4FFB
:103E200038BF7047EAE79CEA026F05D010EA5C0FE2
:103E300008BF00F00040704710B500F0D2F900BF95
:103E400064FBBE3E401058BFC0F14040491058BF0F
:103E5000C1F140418142EFF3008070474FF47F0C85
:103E60001CEAD0121EBF1CEAD11392EA0C0F93EA8F
:103E70000C0F00F0858090EA010F48BF42F4807279
:103E800040F4000C41F400002CF07F4120F07F4012
:103E900000B58142A2EB03020FF2081CACEB504EBE
:103EA000C0F100009EF800E04FEA4E0E00FB0EFC51
:103EB00038BF49004FEA2C1C02F5FA020CFB0EF346
:103EC0004FEACE1E4FEA112C4FEAC1210EEB635E82
:103ED00042EB22420EFB0CFC4FEA1C5300FB031189
:103EE0004FEA112C4FEA01310EFB0CFC4FEADC4C7F
:103EF00000FB0C11C14228BF09184CEB03335DF8DD
:103F000004EB10EB410143EBC250B2F57C0F38BF1C
:103F1000704729D512F0F00F1CBF00F1C04000F02F
:103F200000407047008182838485868788898B8CD6
:103F30008D8E8F919293959697999A9C9D9FA0A212
:103F4000A3A5A7A8AAACAEB0B2B3B5B7B9BCBEC062
:103F5000C2C5C7C9CCCED1D4D7D9DCDFE2E6E9EC03
:103F6000F0F3F7FAFE0000004FEA400C0CF1807C01
:103F7000BCF17E4F28BF7047B0F1C04000F077B968
:103F800090EA010F0CEAD11348BF42F480726245F7
:103F900038BF634507D213F47F0F16D080EA0100C3
:103FA00000F00040704710B500F01BF9097EFC3EA0
:103FB00000F005B880EA010000F00040704780EA98
:103FC000010000F0004000F052B912F47F0F04BF6E
:103FD0000248704780EA010000F049B90000C07F44
:103FE000C10DD1F19E0206DB4FEA002343F00043EE
:103FF00023FA02F07047004207D54FEA4001B1F1C1
:10400000FE4F02D24FF00000704710B500F0E9F803
:1040100049922480002070476FEA2000704700001A
:1040200010F0004148BF4042B0FA80F310FA03F2AA
:10403000C3F19D030BD051EAC35101EB122053068B
:1040400038BF704700F1010008BF20F00100704741
:10405000B0FA80F310FA03F2C3F19D030AD0D90538
:1040600001EB1220530638BF704700F1010008BF72
:1040700020F001007047000050EA010C00F11380AD
:104080001CF5000F58BFBCF5000F01D488427047E3
:1040900007D710F5000F58BF11F5000F15D488424F
:1040A0007047894270471CF5000F04D5BCF5000F1E
:1040B000F7D5814270474FF0807C1CEB400F38BF32
:1040C0001CEB410F01D28142704710B500F089F816
:1040D000922449004FF000504FF08051FFF7B2BEDC
:1040E0004FF47F0C1CEAD0121EBF1CEAD11392EAD7
:1040F0000C0F93EA0C0F00F0478090EA010F48BFC5
:1041000042F480724FF0004C4CEA00204CEA01214E
:1041100002EB0302A0FB0113A2F50002002918BF65
:1041200043F001035B0028BF4FEA330342EB224216
:104130005FEA132C4CEBC2502EBFBCEB436FB2F5C1
:104140007C0F70474FEA036CBCF1004F08BF20F0B2
:104150000100B2F57C0F38BF70470BD582F0FF022B
:1041600012F5803FC8BF704700F1C040D8BF00F0D3
:104170000040704700F5000C5FEA4C0C48BF7047E8
:10418000B0F1C04000F073B890EA010F0CEAD1130F
:1041900048BF42F48072624538BF634504D280EA6A
:1041A000010000F00040704710B500F01AF800BFA1
:1041B0008900013E00F007B800F009B85FEA410C41
:1041C0005FEA1C6C08D080EA010000F050B85FEA9A
:1041D000400C5FEA1C6CF6D14FF00040A0F5800067
:1041E00070470EF1020E2EF0030E5EF8044B2442CF
:1041F00004D44FEA4102B2F17F4F11D84FEA400395
:10420000B3F17F4F0CD80ED14FEAD07CB2F17F4F83
:104210000CEB4C0C0CF1020C08BF4CEBD17C04E015
:104220004FF0080C01E04FEAD17C0CEB4C0324FA70
:1042300003F404F00704B4F1040C06D20EEB840C72
:10424000BDE810404CF0010C6047DFE80CF00708B7
:1042500002024FF00040A0F5800010BD0846420069
:1042600018BFD2F1807288BF00F0004010BDFF215E
:1042700041EAD050C005704751EA000C00F11380AC
:104280001CF5000F58BFBCF5000F01D481427047E8
:1042900007D711F5000F58BF10F5000F15D4814254
:1042A0007047894270471CF5000F04D5BCF5000F1C
:1042B000F7D5884270474FF0807C1CEB410F38BF28
:1042C0001CEB400F01D28842704780EA010081EA6E
:1042D000000180EA0100FFF7F8BE80F0004090EA9C
:1042E000010F7FF554AD81F0004100F008B80000E7
:1042F00090EA010F48BF81F000413FF548AD421AF6
:1043000004D882F00042A0EB020011444FEAD052E0
:104310004FF07F4C1CEA410FA2EBD15318BF9CEA2F
:10432000026F4AD04FF0004C4CEA00204CEA0121C9
:1043300021FA03FCB0EB0C0C0FD412F0FE0F36D0B8
:104340005FEA4C001DD5001240EBC25038BF7047E9
:104350001CF03F0F18BF70470BE0A2F101025FEAAB
:104360001C2040EBC25038BF70471CF07F0F18BFB5
:104370007047C3F12003994014BF401E20F0010094
:10438000704780084FEA122308BF7047B0FA80FCDC
:10439000A2EB0C02CCF1280C60FA0CF093EA122F7D
:1043A00004BF00EBC25070474FEAC3707047130A56
:1043B0005FEADC1008BF7047F6E79CEA026F04D0A2
:1043C00010EA5C0F08BF0020704710B5FFF709FF27
:1043D00040DFF63E81F00040704700000000000022
:1043E00000000000000000000000000000F80000D5
:1043F0000000000000333000000000100C06100C1C
:104400000600000000000000000040C07840C078B6
:104410004000043F04043F040400007088FC08309E
:104420000000001820FF211E0000F008F000E01836
:10443000000000211C031E211E0000F008887000EF
:1044400000001E2123241927211010160E00000041
:1044500000000000000000000000000000E0180460
:104460000200000000071820400000020418E000CD
:1044700000000040201807000000404080F080400D
:1044800040000202010F01020200000000F00000E3
:1044900000000101011F01010100000000000000F7
:1044A000000080B07000000000000000000000006C
:1044B00000000001010101010101000000000000F5
:1044C00000000030300000000000000000008060AC
:1044D0001804006018060100000000E01008081031
:1044E000E000000F102020100F00001010F8000056
:1044F00000000020203F20200000007008080888ED
:1045000070000030282422213000003008888848BC
:1045100030000018202020110E000000C02010F8EC
:10452000000000070424243F240000F808888808BD
:1045300008000019212020110E0000E010888818C2
:104540000000000F112020110E0000380808C838A4
:1045500008000000003F0000000000708808088884
:104560007000001C222121221C0000E0100808100D
:10457000E0000000312222110F00000000C0C00046
:10458000000000000030300000000000008000004B
:10459000000000008060000000000000804020104B
:1045A0000800000102040810200040404040404044
:1045B00040000404040404040400000810204080A7
:1045C00000000020100804020100007048080808DC
:1045D000F0000000003036010000C030C828E810AC
:1045E000E0000718272423140B000000C038E00067
:1045F0000000203C23020227382008F888888870B1
:104600000000203F202020110E00C03008080808BC
:104610003800071820202010080008F808080810A3
:10462000E000203F202020100F0008F88888E808CC
:104630001000203F20202320180008F88888E80870
:104640001000203F200003000000C0300808083898
:10465000000007182020221E020008F808000008A9
:10466000F808203F210101213F20000808F8080830
:1046700000000020203F2020000000000808F8086B
:104680000800C08080807F00000008F888C02818DB
:104690000800203F20012638200008F8080000000C
:1046A0000000203F20202020300008F8F800F8F813
:1046B0000800203F003F003F200008F830C00008FD
:1046C000F808203F200007183F00E01008080810F5
:1046D000E0000F10202020100F0008F8080808083C
:1046E000F000203F210101010000E010080808103F
:1046F000E0000F18242438504F0008F88888888874
:104700007000203F2000030C30200070880808084B
:1047100038000038202121221C00180808F8080859
:1047200018000000203F2000000008F808000008E2
:10473000F808001F202020201F000878880000C8EB
:104740003808000007380E010000F80800F80008DB
:10475000F800033C0700073C0300081868808068E5
:10476000180820302C03032C30200838C800C83823
:1047700008000000203F2000000010080808C8388A
:1047800008002038262120201800000000FE020228
:1047900002000000007F40404000000C30C00000DC
:1047A0000000000000010638C00000020202FE0006
:1047B0000000004040407F000000000004020202B0
:1047C00004000000000000000000000000000000E5
:1047D00000008080808080808080000202040000D1
:1047E00000000000000000000000000080808080C9
:1047F00000000019242222223F2008F800808000B7
:104800000000003F112020110E0000000080808079
:104810000000000E11202020110000000080808880
:10482000F800000E112020103F20000080808080C2
:104830000000001F222222221300008080F08888BE
:1048400088180020203F2020000000008080808009
:104850008000006B94949493600008F8008080803E
:104860000000203F210000203F2000809898000099
:1048700000000020203F20200000000000809898C9
:10488000000000C08080807F000008F80000808069
:104890008000203F24022D302000000808F800008E
:1048A00000000020203F2020000080808080808049
:1048B0008000203F20003F20003F808000808080DB
:1048C0000000203F210000203F20000080808080E9
:1048D0000000001F202020201F008080008080001A
:1048E000000080FFA12020110E00000000808080C9
:1048F0008000000E112020A0FF808080800080803A
:10490000800020203F212000010000008080808066
:1049100080000033242424241900008080E080805B
:1049200000000000001F20200000808000000080A8
:104930008000001F202020103F2080808000008009
:10494000808000010E300806010080800080008019
:1049500080800F300C030C300F00008080008080BE
:1049600080000020312E0E312000808080000080E9
:10497000808080818E701806010000808080808099
:1049800080000021302C2221300000000000807CBB
:10499000020200000000003F404000000000FF0055
:1049A000000000000000FF0000000002027C800008
:1049B00000000040403F000000000006010102022C
:1049C000040400000000000000000000F88888884F
:1049D00088FF88888888F800000000001F08080801
:1049E000087F888888889F80F0000000FE0282820D
:1049F0008282FA8282828282020080601F4040406E
:104A000040407F404044584040001060028C0044C9
:104A100064544D46445464C4040004047E01804040
:104A20003E0000FE00007E80E000000004146404EC
:104A30000CB402024233020000004041211109057A
:104A400003FF0305091121414000201008FC5754C1
:104A50005455FE5454545404000044442427150D66
:104A600005FF050D1525254544001010D0FF9014B5
:104A7000E4AFA4A4A4AFE4040000040300FF008991
:104A80004B2A1A0E1A2A4B888000202020FF202053
:104A9000080808FF080808F800001030100F8848C0
:104AA00021110D030D11214181000000CC4A0008A5
:104AB00000000020B40600006C010008A04E0008B1
:104AC000B406002074080000D001000862000160F4
:104AD00004A24A040B500A01020304060708093223
:104AE0001B100A9A99593FD0070000EF0410060ED8
:104AF0000800002E04124D04126C04128C0412AB38
:104B00000412CA0412E91C10060809000027041246
:104B1000460412650412840412A20412C10412DFB6
:104B20000412FD2010061C0A00003A041257041259
:104B3000750412920412B00412CD0412EA1C10067D
:104B4000070B00002304123F04125B0412770412C7
:104B5000930412AE0412CA0412E40412FF241006D5
:104B60001A0C00003404124E04126704128004125E
:104B7000990412B20412CA0412E20412FA241006B2
:104B8000120D00002904123F04125604126C041284
:104B9000810412970412AC0412C00412D50412E866
:104BA0000412FC2C10060F0E000022041234041212
:104BB00046041257041268041279041289041299E7
:104BC0000412A80412B70412C60412D40412E10499
:104BD00012EE0412FB3C1006070F00001304121E15
:104BE00004122904123404123E0412470412500421
:104BF000125904126104126804126F04127604122E
:104C00007C04128204128704128C04129004129302
:104C100004129704129904129C04129D04529F04DA
:104C200092A00C529D20529930529340528C505277
:104C300082605276705268805259905247A0523426
:104C4000B0521EC021C852FBD852E1E852C6F856F5
:104C5000A8085689185668285646382540254856CB
:104C6000FC5856D56856AC7856818856569825A07B
:104C700025A856FAB856CAC85699D85667E825F0F6
:104C800025F85AFF085ACA185A93285A5B382940FF
:104C900029485AEA585AB0685A7578298029885A9A
:104CA000FD985AC1A85A84B85A46C829D05AE9E092
:104CB0005AABF05E6C00032D08032D10032D180372
:104CC0002D200312B0041291041271041252041226
:104CD00033041E13380317F40600110412B604122D
:104CE0009704127804125904123A04121B1C10067D
:104CF000FD050000DE0412C00412A2041283041297
:104D00006504124804122A04120D201EEF9E03129D
:104D1000D20412B504129804127C041260041244E6
:104D200004122804120C2013F10368110412BB04AE
:104D300012A004128504126B0412510412380412DA
:104D40001F0412062413ED0228110412BD0412A53B
:104D500004128D0412760412600412490412330402
:104D6000121E0412082817F30120110412CA04129B
:104D7000B70412A304129004127D04126B0412599A
:104D800004124804123704122604121604120634C0
:104D90001EF7530412E80412D90412CB0412BE0405
:104DA00012B1041EA45004129804128C041281043F
:104DB000127604126B04126104125804124F04128A
:104DC0004604123E0412370412300412290412233E
:104DD00004121D04121804121304199F1E00DB0391
:104DE0001E0073041600471200DB000414000200CA
:104DF00001520220520630520C40521350521D6094
:104E00005229705237805246905258A0526BB0527D
:104E100081C05298D052B1E052CBF021F825005613
:104E20000610562620564830566B4056905056B7BE
:104E300060256825705608805633905660A0568DC0
:104E4000B056BDC025C85606D85638E8566BF85A35
:104E5000A008291029185A0C285A44385A7C485A54
:104E6000B55829605A0D705A48805A83905AC0A08C
:104E700029A85A1BB85A59C85A97D829E029E85A7C
:104E800013F85E5208035E911803012701F2011125
:104E90001D8E066D92060007000204060800000041
:0400000508000131BD
:00000001FF
